:020000040800F2
:10000000B006002001010008610900087B08000813
:100010005D09000819060008AD1600080000000080
:10002000000000000000000000000000BD110008FA
:100030001D060008000000008F100008D112000803
:100040001701000817010008170100081701000830
:1000500017010008170100082106000859060008CA
:100060001701000817010008170100081701000810
:100070001701000817010008170100081701000800
:1000800017010008170100081701000817010008F0
:1000900017010008170100081701000817010008E0
:1000A00017010008170100081701000817010008D0
:1000B0003513000817010008170100081701000890
:1000C00017010008170100081701000817010008B0
:1000D00017010008170100081701000817010008A0
:1000E000170100081701000817010008DFF80CD0FD
:1000F00000F048F90048004781190008B0060020C8
:1001000005480047FEE7FEE7FEE7FEE7FEE7FEE7FD
:10011000FEE7FEE7FEE7FEE7ED0000082DE9FE4FF3
:1001200081EA030404F0004421F0004100944FF000
:10013000000B23F0004350EA01045ED052EA0304AE
:100140005BD0C3F30A54C1F30A552C44A4F2F33430
:100150000194A0FB0254C1F3130141F48011C3F3D5
:10016000130343F4801301FB024400FB034E840A93
:10017000970A44EA815447EA8357A4FB076802952B
:100180008D0A05FB07854FEA932C04FB0C542705C9
:10019000029D4FEA065847EA1637B5EB08056EEBA5
:1001A000070C870E920E47EA811742EA8312A7FBDB
:1001B0000201B6EB0B0164EB00042B0D43EA0C3398
:1001C0005E1844EB1C50DA465146E7FB0201C5F3CA
:1001D00013044FEA0B3343EA14534FEA0432019CF1
:1001E00043EA0603A4F10C040294009CCDE900B498
:1001F00000F079F803B0BDE8F08F00200146F9E780
:100200000EB5C10F80EAE0700844CA07002140F231
:1002100033438DE80E000A460B4600F064F803B045
:1002200000BD20F00040C10DC0F3160040F40000F6
:100230007F2901DA00207047962903DCC1F196017D
:10024000C8407047963988407047C1F30A5210B5CC
:10025000C1F3130140F2FF3341F480119A4201DAF5
:10026000002010BD40F233439A42A2F2334203DC35
:10027000524200F019F810BD904010BD30B50B4649
:10028000014600202022012409E021FA02F59D42C6
:1002900005D303FA02F5491B04FA02F52844151E9A
:1002A000A2F10102F1DC30BD202A04DB203A21FA60
:1002B00002F00021704721FA02F3D040C2F120027F
:1002C000914008431946704710B5141E73F100049D
:1002D00008DA401C41F1000192185B411A4301D138
:1002E00020F0010010BD2DE9F04D92469B4611B162
:1002F000B1FA81F202E0B0FA80F22032904600F0CA
:1003000053F804460F4640EA0A0041EA0B015346FF
:100310005A46084313D0114653EA010019D0C8F1D8
:1003200040025046FFF7C0FF05460E46504659466C
:10033000424600F039F8084305D0012004E0204689
:100340003946BDE8F08D0020054346EAE0762C43AF
:1003500037430A986305E40AA0EB08000022FD0A6F
:1003600044EA47540A3002D500200146E9E7010576
:1003700010196941DDE9084500196941BDE8F04DF2
:10038000A2E70000064C074D06E0E06840F00103DC
:1003900094E8070098471034AC42F6D3FFF7AAFE62
:1003A0005838000878380008202A04DB203A00FA80
:1003B00002F1002070479140C2F1200320FA03F3BC
:1003C00019439040704721B1826842F00102826077
:1003D00003E0826822F0010282607047014600203B
:1003E0008A6802F004020AB1012000E00020704790
:1003F0000146C86C80B270470246002013680B406B
:100400000BB1012000E000207047014600208A68FF
:1004100002F008020AB1012000E00020704700004D
:1004200030B502460020002350680F4C20400D7963
:100430000C6844EA05242043506090680B4C20402F
:10044000D1E902542C434D7944EA4504204390609D
:10045000D06A20F470000C7C641EE4B2234340EAAE
:100460000350D06230BD0000FFFEF0FFFDF7F1FF4A
:10047000F0B504460D4600200021092D11DDE0688D
:10048000A5F10A0606EB4607072606FA07F1884398
:10049000A5F10A0606EB460603FA06F10843E060FA
:1004A0000CE0206905EB4507072606FA07F18843AB
:1004B00005EB450603FA06F108432061072A0FDA27
:1004C000606B561E06EB86071F2606FA07F1884367
:1004D000561E06EB860605FA06F10843606322E025
:1004E0000D2A0FDA206BD61F06EB86071F2606FAA9
:1004F00007F18843D61F06EB860605FA06F1084386
:10050000206310E0E06AA2F10D0606EB86071F26C5
:1005100006FA07F18843A2F10D0606EB860605FAF6
:1005200006F10843E062F0BD816841F00801816096
:10053000704721B1826842F4A002826003E08268C1
:1005400022F4A00282607047816841F0040181605A
:100550007047000010B501210648FFF7EAFF00BF11
:1005600002210448FFF748FF0028F9D00148FFF7AF
:100570003FFF10BD0024014000B587B001214802B3
:1005800000F0A2FD0121042000F09EFD4FF4004088
:1005900000F07EFD00208DF81B000120ADF8180052
:1005A00003208DF81A0006A9194800F0D7F8052392
:1005B000012200211748FFF75BFF00200190049003
:1005C0004FF46020039000208DF809008DF808009A
:1005D00001208DF8140001A90E48FFF721FF012129
:1005E0000C48FFF7F0FE0B48FFF79EFF00BF0948DD
:1005F000FFF70BFF0128FAD00648FFF7A5FF00BF61
:100600000448FFF7EBFE0128FAD007B000BD000058
:10061000000801400024014000BFFEE770470000D1
:1006200010B5642001F056F90948006801280AD184
:1006300008480068401D07490860084600683C28D3
:1006400001D914200860012000F018F810BD000046
:100650000C0000200800002010B50748006818B9F9
:1006600001200549086002E00020034908600220DB
:1006700000F004F810BD00000C00002001490860E3
:100680007047000014040140002123498279002AA8
:100690003AD00A46126803689A430B461A600A1D4C
:1006A000126803689A430B1D1A60027911440A68A4
:1006B00003681A430A60184A0832126803689A43AA
:1006C000154B08331A601A1D126803689A43124BBF
:1006D0000C331A604279102A0ED11A1F126803686F
:1006E0001A430D4B08331A601A1D126803681A4327
:1006F000094B0C331A600DE00749427911440A682E
:1007000003681A430A6005E0027911440A68036825
:100710009A430A60704700000004014030B500228F
:100720008B071C0F0F2303FA04F20B4B8C1053F8AA
:1007300024309343084C8D1044F8253023468C1008
:1007400053F824308C07240F00FA04F42343024C9E
:100750008D1044F8253030BD080001402DE9F041EE
:10076000024600250026002000230024002791F8DF
:1007700003C00CF00F0591F803C00CF0100CBCF195
:10078000000F03D091F802C04CEA050591F800C0B3
:10079000BCF1000F31D0146800202BE04FF0010CA9
:1007A0000CFA00F3B1F800C00CEA03069E4220D117
:1007B00083004FF00F0C0CFA03F7BC4305FA03FC5F
:1007C0004CEA040491F803C0BCF1280F06D14FF0A5
:1007D000010C0CFA00FCC2F814C00AE091F803C046
:1007E000BCF1480F05D14FF0010C0CFA00FCC2F827
:1007F00010C0401C0828D1D31460B1F800C0BCF16F
:10080000FF0F34DD546800202EE000F1080C4FF09B
:10081000010808FA0CF3B1F800C00CEA03069E4286
:1008200021D183004FF00F0C0CFA03F7BC4305FAFB
:1008300003FC4CEA040491F803C0BCF1280F05D175
:1008400000F1080C08FA0CF8C2F8148091F803C003
:10085000BCF1480F07D100F1080C4FF0010808FA6D
:100860000CF8C2F81080401C0828CED35460BDE8B4
:10087000F081416170470161704700BFFEE70320CE
:1008800000BF011EA0F10102D0B2FAD170470000F2
:100890001FB50121084600F017FC0121082000F0D7
:1008A00013FC48208DF803000120ADF80000032060
:1008B0008DF8020069462848FFF750FF002101200B
:1008C000FFF72CFF012002908DF80E0000208DF81C
:1008D0000C000C208DF80D0002A8FFF7D5FE0620B5
:1008E0008DF8040001208DF8070002208DF8050026
:1008F0008DF8060001A800F035F848208DF80300B7
:100900000220ADF8000003208DF80200694612486D
:10091000FFF724FF01210846FFF700FF02200290A5
:1009200001208DF80E0000208DF80C000C208DF8B1
:100930000D0002A8FFF7A8FE07208DF80400012093
:100940008DF8070002208DF805008DF8060001A83B
:1009500000F008F81FBD0000000C014000BFFEE7DA
:100960007047000070B5002100230F22C47804B343
:10097000154C246804F4E064C4F5E064210AC1F174
:100980000403CA40447804FA03F1847814402143F4
:1009900009010E4C0678A155047804F01F050124C6
:1009A000AC4005786D11AD0005F1E025C5F80041BA
:1009B00009E0047804F01F050124AC40044D0678DA
:1009C000761145F8264070BD0CED00E000E400E033
:1009D00080E100E002490143024A116070470000D3
:1009E0000000FA050CED00E070B500240CE00025D5
:1009F00006E00020074901EBC5010855681CC5B297
:100A0000802DF6DB601CC4B2082CF0DB00F030F95E
:100A100070BD00002C000020F0B514460B46CF1727
:100A200001EB5777C7F3C702CF1701EB5777FF10DA
:100A3000A1EBC707FEB20123B340DDB24CB1134BAB
:100A400003EBC0039B5C2B43104F07EBC007BB5469
:100A50001AE00E4B03EBC0039B5CDB430B4F07EB31
:100A6000C007BB54094B03EBC0039B5C2B43074FF0
:100A700007EBC007BB54054B03EBC0039B5CDB4398
:100A8000024F07EBC007BB54F0BD00002C00002054
:100A900010B54FF480610C48FFF7EDFE4FF4006194
:100AA0000948FFF7E8FEFFF7EAFE4FF480610648C9
:100AB000FFF7DFFEFFF7E3FE4FF400610248FFF7A8
:100AC000D8FEFFF7DCFE10BD000C014010B54FF45E
:100AD00080610848FFF7CDFE4FF400610548FFF73D
:100AE000CAFEFFF7CCFE4FF480610248FFF7C3FE59
:100AF00010BD0000000C014010B54FF480610A48A1
:100B0000FFF7B9FEFFF7BBFE4FF400610648FFF7A1
:100B1000B2FEFFF7B4FE4FF400610348FFF7A9FEF1
:100B2000FFF7ADFE10BD0000000C014008B501212B
:100B3000082000F0C9FA4FF40060ADF8000014205E
:100B40008DF8030003208DF8020069464148FFF745
:100B500005FE4FF400613F48FFF78DFE4FF48060C3
:100B6000ADF8000069463B48FFF7F8FD4FF480619F
:100B70003848FFF780FEC82000F0ACFE0021AE2010
:100B800000F069FA0021084600F065FA0021102003
:100B900000F061FA0021402000F05DFA0021812080
:100BA00000F059FA0021CF2000F055FA0021A120D1
:100BB00000F051FA0021C82000F04DFA0021A620D3
:100BC00000F049FA0021A82000F045FA00213F205A
:100BD00000F041FA0021D32000F03DFA0021084640
:100BE00000F039FA0021D52000F035FA00218020EC
:100BF00000F031FA0021D92000F02DFA0021F12077
:100C000000F029FA0021DA2000F025FA0021122054
:100C100000F021FA0021DB2000F01DFA0021302035
:100C200000F019FA0021202000F015FA002102201E
:100C300000F011FA00218D2000F00DFA002114209F
:100C400000F009FAFFF7D0FE0021AF2000F003FA10
:100C500008BD0000000C014010B50246012000E074
:100C600050430B1EA1F10104E1B2F9D110BD000007
:100C700070B500242BE004F1B001C8B2002100F0EF
:100C8000EAF90021084600F0E6F90021102000F002
:100C9000E2F9FFF7FDFE782000F01EF8FFF72CFFC9
:100CA000402000F019F8FFF727FF002509E0094967
:100CB00001EBC501085D00F00FF8FFF71DFF681C90
:100CC000C5B2802DF3DBFFF701FF601CC4B2082C16
:100CD000D1DB70BD2C00002070B5044600251FE05C
:100CE00004F0800028B14FF480610F48FFF7C3FD86
:100CF00004E04FF480610C48FFF7BBFDFFF7BFFD38
:100D00004FF400610848FFF7B6FDFFF7B8FD4FF458
:100D100000610548FFF7ADFD6006040E681CC5B212
:100D2000082DDDDB70BD0000000C01402DE9FE4FF9
:100D30000746884692461C460197CDF80080082C4D
:100D400002D14FF006091FE02046E31704EB53736E
:100D5000DB1021464FEAE47C04EB5C7C4FEAEC0CB0
:100D6000A4EBCC0CBCF1000F02D04FF0010C01E061
:100D70004FF0000C6344224604EBD27C4FEA6C0C2B
:100D800003FB0CF303F0FF09AAF12000C6B2002513
:100D90005EE0082C07D106EB4600304901EB40002D
:100DA00010F805B01DE00C2C07D106EB46002C49CD
:100DB00001EB800010F805B013E0102C05D1294894
:100DC00000EB061010F805B00BE0182C07D106EB6D
:100DD000C600254901EB800010F805B001E0BDE830
:100DE000FE8F002002901CE00BF0010028B141466C
:100DF00038460C9AFFF710FE09E00C9808B901205C
:100E000000E00020024641463846FFF705FE4FEA63
:100E10006B0B08F1010000F0FF080298401CC0B203
:100E2000029002980828DFDB781CC7B2082C0BD090
:100E300004EBD4714A100199791A8A4204D1019FB6
:100E400000980830C0B20090DDF80080681CC5B280
:100E50004D459EDBFFF70CFF00BFC0E7C81A000836
:100E6000F01C000864210008542700082DE9FC5FED
:100E70000746884616461C46BB46CDF804802046E9
:100E8000E21704EB5272D2102146E31704EB5373BE
:100E9000DB10A4EBC3030BB1012300E000231A44D1
:100EA000624392B20092002555E0102C05D12D48E6
:100EB00000EB461010F805A01BE0182C07D106EB3C
:100EC000C600294901EBC00010F805A011E0202C54
:100ED00005D1264800EBC61010F805A009E0402C0B
:100EE00005D1234800EB462010F805A001E0BDE83D
:100EF000FC9F4FF000091CE00AF0010028B14146B8
:100F000038460C9AFFF788FD09E00C9808B90120D3
:100F100000E00020024641463846FFF77DFD4FEADB
:100F20006A0A08F1010000F0FF0809F1010000F071
:100F3000FF09B9F1080FDFDB781CC7B2A7EB0B0084
:100F4000A04204D15F4601980830C0B20190DDF89C
:100F50000480681C85B200988542A6DBFFF788FEF6
:100F600000BFC4E7B034000890350008D835000849
:100F7000583600082DE9FF4F83B0064691461F46BC
:100F8000DDE9104A4FF0000B082C01D14FF0020BA5
:100F9000002532E0781B401EC1B20A20FFF75CFE3C
:100FA000B9FBF0F00A21B0FBF1F201FB1208B8F135
:100FB000000F0FD104EBD4710BEB610101FB056154
:100FC000C8B223463022CDF800A002940499FFF75E
:100FD000ADFE10E004EBD4710BEB610101FB056188
:100FE000C8B208F13001CAB22346CDF800A002947D
:100FF0000499FFF79BFE681CC5B2BD42CADBFFF730
:1010000037FE07B0BDE8F08F2DE9F84306460F46DE
:1010100014461D46DDF8208013E0CDF800802278CC
:101020002B4639463046FFF781FE082D02D1B01D10
:10103000C6B205E0284605EBD07106EB6101CEB2E1
:10104000641C2078202802DB20787E28E5DDFFF76D
:101050000FFEBDE8F88370B505460C46FFF718FD96
:101060007820FFF739FEFFF747FD1CB14020FFF75E
:1010700033FE02E00020FFF72FFEFFF73DFD28467C
:10108000FFF72AFEFFF738FDFFF720FD70BD704720
:1010900001460020034A506820F440400843506055
:1010A000704700000010024029B1064AD26902438D
:1010B000044BDA6104E0034AD2698243014BDA61EE
:1010C000704700000010024029B1064A92690243AD
:1010D000044B9A6104E0034A92698243014B9A618E
:1010E000704700000010024030B5002100220024AB
:1010F00000232D4D6D6805F00C0121B1042905D0A8
:10110000082923D105E0294D056022E0274D05601F
:101110001FE0254D6D6805F47012234D6D6805F4D0
:101120008034022505EB92421CB9214D55430560E0
:101130000BE01D4D6D6805F400351DB11C4D554388
:10114000056002E0194D5543056002E0174D05604A
:1011500000BF00BF144D6D6805F0F0010909154D81
:101160006B5C0568DD4045600F4D6D6805F4E0611E
:10117000090A104D6B5C4568DD4085600A4D6D685D
:1011800005F46051C90A0B4D6B5C4568DD40C560D4
:10119000054D6D6805F44041890B074D6B5CC568D2
:1011A000B5FBF3F5056130BD0010024000127A0076
:1011B00000093D001400002024000020704710B5F5
:1011C00000F002F810BD00000CB500200190009066
:1011D0003348006840F480303149086000BF30482F
:1011E000006800F4003000900198401C01900098C5
:1011F00018B90198B0F5A06FF1D12948006800F442
:10120000003010B10120009001E000200090009813
:10121000012843D12348006840F0100021490860AC
:101220000846006820F0030008600846006840F0A7
:10123000020008601A48406819494860084640683A
:1012400048600846406840F480604860084640684E
:1012500020F47C1048600846406840F4E81048607C
:101260000846006840F08070086000BF0C480068C5
:1012700000F000700028F9D00948406820F0030011
:10128000074948600846406840F00200486000BFD7
:101290000348406800F00C000828F9D10CBD00009C
:1012A0000010024000200240042808D14FF0E02145
:1012B000096941F004014FF0E022116107E04FF0AD
:1012C000E021096921F004014FF0E022116170472B
:1012D0007047000010B51348006840F00100114944
:1012E000086008464068104908400E4948600846B2
:1012F00000680E4908400B4908600846006820F461
:10130000802008600846406820F4FE0048604FF4E2
:101310001F008860FFF753FF4FF00060044908602A
:1013200010BD0000001002400000FFF8FFFFF6FEB5
:1013300008ED00E02DE9F0470121880700F04AF8A8
:10134000012827D1FFF706F91349088008460088CD
:1013500000EB800A4FEAEA710AEB11510813FEF71D
:101360004FFF06460D4A0E4BFEF7D8FE04460022FC
:101370004FF08043FEF7D2FE8046FEF766FF064937
:1013800008800846018807A000F092F9012188072B
:1013900000F011F8BDE8F087000000208FC2F528AA
:1013A0005C8F1A4070706D3A3D2564200A0D000074
:1013B000CA4302827047CA430282704721B1028841
:1013C00042F00102028004E002884FF6FE731A40E8
:1013D0000280704730B50246002000230024158AA1
:1013E00005EA0103958905EA010413B10CB1012056
:1013F00000E0002030BD1AB183890B43838102E0F5
:1014000083898B438381704701894FF6F8721140BD
:1014100001817047002202881D4B98420ED01D4B5F
:1014200098420BD0B0F1804F08D01B4B984205D0AA
:101430001A4B984202D01A4B984204D14FF68F7340
:101440001A404B881A43174B984207D0164B9842C4
:1014500004D04FF6FF431A40CB881A4302808B8892
:1014600083850B8803850A4B98420BD0094B984221
:1014700008D00E4B984205D00D4B984202D00D4B30
:10148000984201D10B7A03860123838270470000C2
:10149000002C0140003401400004004000080040DE
:1014A000000C0040001000400014004000400140CB
:1014B00000440140004801401FB501210846FFF7E4
:1014C000F3FD4FF08040FFF79FFF0020ADF80A00CA
:1014D000ADF8060042F20F70ADF8080041F61F406B
:1014E000ADF8040000208DF80C0001A94FF08040F9
:1014F000FFF790FF01218807FFF75AFF01221146ED
:101500009007FFF778FF4FF4A060FFF763FA1C2005
:101510008DF8000001208DF8030002208DF80100F5
:1015200001208DF802006846FFF71CFA01218807A8
:10153000FFF744FF1FBD000000B585B0012144F254
:101540000400FFF7C1FD4FF40070ADF81000182043
:101550008DF8130003208DF8120004A91348FFF73B
:10156000FDF84FF48060ADF8100004208DF81300F2
:1015700004A90E48FFF7F2F84FF41650009000202F
:10158000ADF80400ADF80600ADF80800ADF80C00A9
:101590000C20ADF80A006946054800F017F8012153
:1015A000034800F007F805B000BD00000008014046
:1015B0000038014021B1828942F40052828104E066
:1015C00082894DF6FF731A40828170472DE9F047FA
:1015D00086B005460E460024A24600BFA14600275D
:1015E000B08900B100BF2F462C8A4CF6FF70044032
:1015F000F08804432C82AC894EF6F3100440B08886
:1016000031890843718908430443AC81AC8A4FF6A1
:10161000FF400440B0890443AC8201A8FFF764FD99
:101620001F48874202D1DDF810A001E0DDF80CA0D0
:10163000A88900F4004040B10AEBCA0000EB0A1090
:1016400031684900B0FBF1F807E00AEBCA0000EB93
:101650000A1031688900B0FBF1F86420B8FBF0F0A3
:1016600004012009642101FB1089A88900F40040CD
:1016700040B1322000EBC900B0FBF1F000F00700F0
:10168000044308E0322000EB09106421B0FBF1F0C4
:1016900000F00F0004432C8106B0BDE8F087000085
:1016A00000380140C1F308028280704700BFFEE7A6
:1016B0000FB4054B10B503A9044A029800F018F8BE
:1016C00010BC5DF814FB0000111900082800002070
:1016D00002E008C8121F08C1002AFAD170477047FB
:1016E000002001E001C1121F002AFBD17047000059
:1016F0002DE9FF4F89B09B460446002506E02528CA
:101700000BD05A460B999047641C6D1C207800281A
:10171000F5D10DB02846BDE8F08F0027B84601226C
:10172000474900E0074314F8013F203B02FA03F069
:101730000842F7D120782E2819D114F8010F47F06C
:1017400004072A280ED06FF02F022078A0F1300174
:1017500009290CD808EB880102EB410100EB0108D4
:10176000641CF2E70A98641C50F8048B0A902078F5
:101770000028CED0642808D0692806D075281ED04D
:101780005A460B9990476D1C58E00A994FF00A0988
:1017900001C90A91002802DA40422D2102E03905F0
:1017A00004D52B218DF82010012103E0F90704D086
:1017B0002021F7E78A4608AE0DE00021FAE70A99F2
:1017C0004FF00A0901C90A91F7E74946FEF756FDAD
:1017D000303106F8011D0028F7D1ADEB060000F10D
:1017E0002009780701D44FF00108C84502DDA8EBB5
:1017F000090000E000208046002706E008A85A46BD
:10180000C05D0B9990476D1C7F1C5745F6DB04E0CB
:1018100030205A460B9990476D1CB8F10001A8F191
:101820000108F5DC05E016F8010B5A460B999047C4
:101830006D1CB9F10001A9F10109F4DC641C65E734
:101840000928010010B520210148FFF714F810BD48
:101850000008014008B501210420FFF735FC1020E5
:101860008DF803002020ADF8000003208DF8020061
:1018700069460448FEF772FF20210248FEF7FBFF8D
:1018800008BD00000008014010B520210148FEF706
:10189000F0FF10BD0008014010B504466FF00400D1
:1018A000FFF702FDE11704EB5171C1F3C701074ACD
:1018B00011701046007800EB4001C1EBC0104FF6EC
:1018C000FF7101EAC0000249088010BD100000202D
:1018D0001200002001460D4A12884A434FF0E023CF
:1018E0005A6100229A6101221A6100BF4FF0E02282
:1018F000106900F001021AB100F48032002AF5D01C
:1019000000224FF0E0231A619A6170471200002014
:1019100070B504460D46E1B20548FFF7C3FE00BFAF
:101920000348008800F080000028F9D0204670BDF0
:101930000038014010B540210148FEF79AFF10BD64
:101940000008014008B501210420FFF7BDFB10206D
:101950008DF803004020ADF8000003208DF8020050
:1019600069460248FEF7FAFE08BD00000008014083
:1019700010B540210148FEF77EFF10BD0008014070
:101980001CB5FFF7A7FC4820FFF786FFFFF7D4FD43
:10199000FFF792FDFFF7CAF8FFF75CFFFFF7D2FFF2
:1019A000FEF776FFFEF7E8FDFFF71EF80120102393
:1019B0000022114600901046FFF758FA012010232C
:1019C0000246002100901846FFF750FA012010232C
:1019D0000222002100902020FFF748FA0120102366
:1019E0000322002100903020FFF740FA012010234D
:1019F0003A22002100904020FFF798F9012010239F
:101A000028A22D2100900020FFF7FEFA01201023CC
:101A100025A22D2100902320FFF7F6FA40E023486D
:101A20000068FEF7FEFB0446012010210223CDE9E9
:101A300000101F482D2102680F20FFF79BFA01209C
:101A400010210346CDE900101A482D2102685520C7
:101A5000FFF790FA0120102317A2194600903020BA
:101A6000FFF7D2FA012010210423CDE90010154818
:101A7000028800215020FFF77DFA124800880C49A7
:101A80000968884204D9FFF7FFFEFFF771FF03E002
:101A9000FFF7D8FEFFF74EFF1420FFF71BFF00BF34
:101AA000BDE700004C3A000070706D00040000209B
:101AB000080000200C000020202020202070706DE5
:101AC00000000000000000200000000000000000F6
:101AD000002F000000000700070000147F147F148F
:101AE00000242A7F2A120062640813230036495515
:101AF000225000000503000000001C2241000000ED
:101B000041221C000014083E08140008083E080882
:101B1000000000A0600000080808080800006060DD
:101B20000000002010080402003E5149453E00001C
:101B3000427F4000004261514946002141454B31FE
:101B4000001814127F10002745454539003C4A49CA
:101B5000493000017109050300364949493600063C
:101B60004949291E000036360000000056360000A4
:101B7000000814224100001414141414000041221F
:101B8000140800020151090600324959513E007CF7
:101B90001211127C007F49494936003E41414122E1
:101BA000007F4141221C007F49494941007F0909CA
:101BB0000901003E4149497A007F0808087F00007A
:101BC000417F4100002040413F01007F0814224135
:101BD000007F40404040007F020C027F007F0408ED
:101BE000107F003E4141413E007F09090906003E49
:101BF0004151215E007F0919294600464949493172
:101C00000001017F0101003F4040403F001F204094
:101C1000201F003F4038403F006314081463000752
:101C20000870080700615149454300007F414100A9
:101C300000552A552A55000041417F000004020149
:101C40000204004040404040000001020400002027
:101C500054545478007F4844443800384444442065
:101C600000384444487F00385454541800087E0912
:101C700001020018A4A4A47C007F080404780000DA
:101C8000447D4000004080847D00007F1028440097
:101C90000000417F4000007C04180478007C0804A8
:101CA000047800384444443800FC242424180018E4
:101CB000242418FC007C08040408004854545420D0
:101CC00000043F444020003C4040207C001C204059
:101CD000201C003C4030403C004428102844001C9C
:101CE000A0A0A07C004464544C4414141414141494
:101CF0000000000000000000000000000000FC00E8
:101D00000000000002000000000C020C02000000B5
:101D10000000000090D0BCD0BC9000030003000085
:101D20001824FE448C000302070201001824D8B0D6
:101D30004C80000300010201C038E438E0000102D9
:101D4000020102020806000000000000000000007E
:101D5000000000F80402000000010204000204F880
:101D600000000004020100009060F8609000000094
:101D7000010000002020FC202000000001000000E5
:101D800000000000000008060000000020202020C5
:101D90002000000000000000000000000000000221
:101DA000000000000080601C02000403000000002E
:101DB000F8040404F8000102020201000008FC001B
:101DC00000000002030200001884442418000302EB
:101DD0000202020008042424D800010202020100C9
:101DE00040B088FC80000000000302003C24242452
:101DF000C400010202020100F824242CC0000102E8
:101E0000020201000C04E41C0400000003000000B6
:101E1000D8242424D800010202020100384444449A
:101E2000F8000003020201000000100000000000A2
:101E3000020000000000200000000000060000007A
:101E40000020508804020000000001029090909051
:101E500090000000000000000002048850200002F2
:101E6000010000001804C424180000000200000053
:101E7000F804E494F80001020202020000E09CF081
:101E8000800002030000030204FC2424D8000203A3
:101E900002020100F80404040C0001020202010025
:101EA00004FC0404F80002030202010004FC247490
:101EB0000C0002030202030004FC24740C00020361
:101EC00002000000F0080444CC40000102020100BE
:101ED00004FC2020FC040203000003020404FC04B0
:101EE0000400020203020200000404FC04040604CD
:101EF0000403000004FC24D00C04020302000302CB
:101F000004FC04000000020302020203FC3CC03C8B
:101F1000FC0003000300030004FC30C4FC040203C3
:101F200002000300F8040404F800010202020100A8
:101F300004FC24241800020302000000F884840436
:101F4000F80001020207050004FC24649800020363
:101F500002000302182424448C0003020202010040
:101F60000C04FC040C0000020302000004FC00004E
:101F7000FC04000102020100047C80E01C0400005B
:101F8000030000001CE03CE01C0000030003000014
:101F9000049C609C0400020300030200041CE01C7B
:101FA00004000002030200000C84641C040002030D
:101FB000020203000000FE02020000000704040009
:101FC000000E30C00000000000010200000202FE0E
:101FD00000000004040700000004020400000000E8
:101FE00000000000000000000000080808080808C1
:101FF0000000020000000000000000000040A0A05F
:10200000C00000010202030204FC2020C000000303
:102010000202010000C02020600000010202020054
:1020200000C02024FC0000010202030200C0A0A0A6
:10203000C0000001020202000020F8242404000273
:10204000030202000040A0A0602000070A0A0A0460
:1020500004FC2020C0000203020003020020E40070
:102060000000000203020000000020E40000080855
:102070000807000004FC80E02020020302000302A5
:102080000404FC000000020203020200E020E02041
:10209000C00003000300030020E02020C000020372
:1020A0000200030200C02020C00000010202010063
:1020B00020E02020C000080F0A02010000C02020FC
:1020C000E0000001020A0F0820E040202000020387
:1020D000020000000060A0A0200000020202030035
:1020E0000020F820000000000102020020E0002093
:1020F000E00000010202030220E0208060200000D6
:10210000030100006080E080600000030003000025
:1021100020608060200002030003020020E0208095
:1021200060200808070100000020A06020000002D5
:1021300003020200000020DE02000000000704008D
:10214000000000FF00000000000F00000002DE2081
:102150000000000407000000020102040402000065
:10216000000000000000000000000000000000006F
:1021700000000000000000F8000000000000003334
:102180003000000000100C06100C060000000000DB
:102190000000000040C07840C0784000043F0404C4
:1021A0003F040400007088FC08300000001820FF85
:1021B000211E0000F008F000E018000000211C03C0
:1021C0001E211E0000F00888700000001E2123243C
:1021D0001927211010160E0000000000000000005A
:1021E00000000000000000E01804020000000007EA
:1021F0001820400000020418E000000000402018F1
:1022000007000000404080F0804040000202010FC3
:1022100001020200000000F0000000000101011FA7
:1022200001010100000000000000000080B070000B
:10223000000000000000000000000000000101019B
:10224000010101010000000000000000003030002A
:102250000000000000000000806018040060180604
:102260000100000000E010080810E000000F10203E
:1022700020100F00001010F8000000000020203F88
:102280002020000000700808088870000030282412
:1022900022213000003008888848300000182020B3
:1022A00020110E000000C02010F8000000070424D8
:1022B000243F240000F8088888080800001921201D
:1022C00020110E0000E0108888180000000F112077
:1022D00020110E0000380808C83808000000003F30
:1022E000000000000070880808887000001C22218F
:1022F00021221C0000E010080810E000000031223C
:1023000022110F00000000C0C000000000000030DB
:10231000300000000000008000000000000080602D
:1023200000000000000080402010080000010204AE
:102330000810200040404040404040000404040495
:102340000404040000081020408000000020100851
:1023500004020100007048080808F0000000003086
:1023600036010000C030C828E810E0000718272414
:1023700023140B000000C038E0000000203C2302C2
:102380000227382008F8888888700000203F202025
:1023900020110E00C0300808080838000718202057
:1023A0002010080008F808080810E000203F20204E
:1023B00020100F0008F88888E8081000203F20202F
:1023C0002320180008F88888E8081000203F200023
:1023D00003000000C030080808380000071820205B
:1023E000221E020008F808000008F808203F21011A
:1023F00001213F20000808F8080800000020203FC5
:102400002020000000000808F8080800C080808034
:102410007F00000008F888C028180800203F20012D
:102420002638200008F8080000000000203F202087
:102430002020300008F8F800F8F80800203F003F9E
:10244000003F200008F830C00008F808203F2000B6
:1024500007183F00E01008080810E0000F102020C7
:1024600020100F0008F808080808F000203F21019C
:1024700001010000E01008080810E0000F182424F3
:1024800038504F0008F8888888887000203F200066
:10249000030C30200070880808083800003820211C
:1024A00021221C00180808F8080818000000203F26
:1024B0002000000008F808000008F808001F20208D
:1024C00020201F000878880000C83808000007385E
:1024D0000E010000F80800F80008F800033C0700AF
:1024E000073C0300081868808068180820302C0317
:1024F000032C30200838C800C83808000000203FEE
:102500002000000010080808C838080020382621DC
:1025100020201800000000FE020202000000007FE0
:1025200040404000000C30C00000000000000001EE
:102530000638C00000020202FE00000000404040D9
:102540007F000000000004020202040000000000FE
:10255000000000000000000000000000808080807B
:102560008080808000020204000000000000000063
:1025700000000000000080808080000000192422FC
:1025800022223F2008F8008080000000003F112038
:1025900020110E000000008080800000000E11203D
:1025A00020201100000000808088F800000E11201B
:1025B00020103F200000808080800000001F222229
:1025C00022221300008080F0888888180020203F95
:1025D000202000000000808080808000006B9494A8
:1025E0009493600008F8008080800000203F210064
:1025F00000203F2000809898000000000020203F2D
:1026000020200000000000809898000000C080801A
:10261000807F000008F8000080808000203F2402B6
:102620002D302000000808F8000000000020203FA6
:10263000202000008080808080808000203F20005B
:102640003F20003F8080008080800000203F2100EC
:1026500000203F200000808080800000001F20209C
:1026600020201F00808000808000000080FFA120CB
:1026700020110E000000008080808000000E1120DC
:1026800020A0FF80808080008080800020203F216B
:10269000200001000000808080808000003324241E
:1026A00024241900008080E0808000000000001FCA
:1026B000202000008080000000808000001F20207B
:1026C00020103F20808080000080808000010E303C
:1026D0000806010080800080008080800F300C039D
:1026E0000C300F0000808000808080000020312EA0
:1026F0000E312000808080000080808080818E707C
:102700001806010000808080808080000021302C2D
:102710002221300000000000807C02020000000046
:10272000003F404000000000FF00000000000000EB
:10273000FF0000000002027C800000000040403FDB
:102740000000000000060101020204040000000075
:102750000000000000000000000000000000000079
:102760000000000000000000000000000000000069
:1027700000000000000000000000000000F0F0F089
:10278000000000000000000000017F0100000000C8
:1027900000000000001C1C1C000000000000806005
:1027A000301C8C60301C0C00000000000000000099
:1027B0000000000000000000000000000000000019
:1027C000000000E00000000000E000000086E69F3E
:1027D00086868686E69F860000011F0101010101B1
:1027E0001F010100000080C06020F820E0C0000050
:1027F000000003070C18FF70E18100000000070FC4
:1028000010107F100F070000806020608000000023
:10281000E02000000F3020309F70DC371030C00007
:102820000000100E03000718101807000000C02059
:1028300020E0C0000000000080E01F38E88703C4EB
:102840003C040000070F1810100B070D10100800B3
:1028500000808C4C380000000000000000000000E8
:102860000000000000000000000000000000000068
:102870000000000000000000000080E030080400BC
:102880000000000000FEFF0100000000000000004A
:102890000000030F1820400000040830E080000012
:1028A000000000000000000001FFFE00000000002A
:1028B000004020180F03000000000000000000008E
:1028C0000000C00000000000004266663C18FF18CF
:1028D0003C666642000000000000030000000000AB
:1028E0000000000000008000000000000010101038
:1028F0001010FF1010101010000000000000030066
:1029000000000000000000000000000000000000C7
:1029100000000000000000000000000000808C4C5F
:10292000380000000000000000000000000000006F
:1029300000000000001010101010101010101000F7
:102940000000000000000000000000000000000087
:102950000000000000000000000000000000000077
:102960000000000000001C1C1C0000000000000013
:102970000000000000000000E0380C000000000033
:1029800080701C03000000000060380E0100000091
:1029900000000000000080C060202060C0800000B7
:1029A00000FEFF010000000001FFFE000001070E15
:1029B000181010180E0701000000808080C0E00091
:1029C000000000000000000000FFFF000000000009
:1029D00000001010101F1F10101000000080402079
:1029E00020202060C08000000003030080402038C9
:1029F0001F070000001C1A1918181818181F0000CB
:102A00000080C020202060C0800000000003030080
:102A10001010182FE780000000070F10101010187A
:102A20000F070000000000000000C0E0F000000000
:102A300000C0B088868180FFFF8080000000000019
:102A40000010101F1F1010000000E0606060606048
:102A50006060000000003F1008080818F0E0000067
:102A600000070B101010101C0F030000000080C0A6
:102A700040202020E0C0000000FCFF2110080808D2
:102A800018F0E0000001070C18101010080F0300E8
:102A90000000C0E06060606060E060000000030073
:102AA0000000E0180700000000000000001F1F00E9
:102AB000000000000080C0602020202060C0800056
:102AC0000087EF2C1818303068CF830000070F08FC
:102AD00010101010180F07000000C0C02020202088
:102AE000C0800000001F3F604040402010FFFE00FB
:102AF00000000C1C101010080F0300000000000064
:102B0000000000000000000000000000000E0E0E9B
:102B10000000000000000000001C1C1C0000000061
:102B200000000000000000000000000000000000A5
:102B3000000C0C00000000000000000000583800ED
:102B40000000000000000000000000804020100095
:102B50000000102844820100000000000000000076
:102B60000000010204081000000000000000000046
:102B7000000000000084848484848484848484002D
:102B80000000000000000000000000000000102015
:102B900040800000000000000000000000000182F2
:102BA000442810000000100804020100000000008A
:102BB00000C020201010101030E0C00000030300FF
:102BC00000F010080C070300000000001C1C1C0093
:102BD00000000000000000C0406020202040C00035
:102BE00000FCFF01F00E03C1FE03807F0001070E11
:102BF00008111110110904020000000080E0E0003B
:102C0000000000000000807C4340477FF880000007
:102C100010181F1000000000131F1C1020E0E020FF
:102C200020202060C080000000FFFF10101010184E
:102C30002FE78000101F1F1010101010180F070032
:102C4000000080C0402020202060E00000FCFF0148
:102C500000000000000001000001070E1810101015
:102C60000804030020E0E02020202040C080000075
:102C700000FFFF000000000001FFFE00101F1F10FA
:102C8000101018080E07010020E0E020202020206E
:102C90002060800000FFFF101010107C000000007A
:102CA000101F1F10101010101018060020E0E02058
:102CB000202020206060800000FFFF101010107C9A
:102CC00000000100101F1F100000000000000000A5
:102CD000000080C06020202040E0000000FCFF01D8
:102CE00000004040C0C140400001070E1810101005
:102CF0000F0F000020E0E0200000000020E0E020B6
:102D000000FFFF101010101010FFFF00101F1F1009
:102D100000000000101F1F100000202020E0E02015
:102D2000202000000000000000FFFF000000000065
:102D300000001010101F1F101010000000000000F5
:102D4000202020E0E020202000000000000000FF04
:102D5000FF0000000060E0808080C07F3F00000036
:102D600020E0E020000020A06020200000FFFF30D5
:102D7000187CE3C000000000101F1F1000000113AA
:102D80001F1C181020E0E0200000000000000000E0
:102D900000FFFF000000000000000000101F1F10D7
:102DA000101010101018060020E0E0E000000000F5
:102DB000E0E0E02000FF013FFEC0E01E01FFFF0059
:102DC000101F1000031F0300101F1F1020E0E0C0A1
:102DD000000000000020E02000FF0003071C78E056
:102DE0008000FF00101F100000000000030F1F00F4
:102DF000000080C060202060C080000000FEFF0155
:102E00000000000000FFFE000001070E181010185F
:102E10000C07010020E0E0202020202060C080007E
:102E200000FFFF2020202020301F0F00101F1F1048
:102E30000000000000000000000080C06020206052
:102E4000C080000000FEFF010000000000FFFE0047
:102E50000001070E1111133C7C67210020E0E020E7
:102E60002020202060C0800000FFFF101030F0D034
:102E7000080F0700101F1F10000000030F1C101088
:102E80000080C060202020204040E00000070F0CA0
:102E90001818303060E08100001F0C08101010106E
:102EA000180F07008060202020E0E02020206080B4
:102EB0000100000000FFFF00000000010000000012
:102EC000101F1F100000000020E0E02000000000A4
:102ED0000020E02000FFFF00000000000000FF00D5
:102EE00000070F1810101010100807002060E0E015
:102EF0002000000020E060200000077FF8800080B4
:102F00007C03000000000000071F1C0700000000F9
:102F100020E0E02000E0E0200020E0200007FFF8B3
:102F2000E01FFFFCE01F00000000031F0300011F63
:102F300003000000002060E0A0000020E06020000E
:102F4000000000038F7CF8C6010000000010181E6E
:102F5000130001171F1810002060E0E0200000009F
:102F600020E06020000001073EF8E01807000000A4
:102F700000000010101F1F101000000000806020D3
:102F8000202020A0E0E0200000000000C0F03E0F64
:102F90000300000000101C1F17101010101806006E
:102FA0000000000000FC0404040404000000000011
:102FB00000FF00000000000000000000007F404013
:102FC00040404000000010E0000000000000000051
:102FD00000000000031C60800000000000000000F2
:102FE000000000030C70800000000404040404FCD2
:102FF0000000000000000000000000FF00000000D2
:10300000000040404040407F0000000000000010F1
:10301000080C040C08100000000000000000000074
:1030200000000000000000000000000000000000A0
:103030000000000000000000000000000000000090
:103040000000000000000000808080808080808080
:103050008080808000000004040808000000000058
:103060000000000000000000000000000000000060
:103070000000000000000000000000000000000050
:1030800000000000000098D844642424FCF80000EC
:10309000000F1F18101010081F1F10180020E0F05C
:1030A00000000000000000000000FFFF18080404FA
:1030B0000CF8F00000001F0F18101010180F03007C
:1030C00000000000000000000000000000E0F81810
:1030D0000404043C3800000000030F0C1010101012
:1030E000080600000000000000000020E0F00000E2
:1030F00000E0F81C04040408FFFF000000030F18A0
:10310000101010081F0F0800000000000000000051
:10311000000000000000E0F8484444444C7870008F
:103120000000030F0C18101010080400000000002D
:1031300080C0602020E0C00000040404FFFF0404FD
:1031400004040000000010101F1F101010000000E9
:10315000000000000000000000000000000070F807
:103160008C04048CF874040C007076CF8D8D8D89DE
:10317000C87870000020E0F00000000000000000AF
:103180000000FFFF08040404FCF8000000101F1FEB
:10319000100000101F1F1000000000000060600001
:1031A000000000000000040404FCFC00000000001B
:1031B00000001010101F1F10101000000000000071
:1031C000000000606000000000000000040404FC37
:1031D000FC0000000000C0C08080C07F3F000000F5
:1031E0000020E0F000000000000000000000FFFFF1
:1031F00080C0F41C0404000000101F1F1100031FF6
:103200001C1010000000202020E0F0000000000052
:103210000000000000FFFF00000000000000101090
:10322000101F1F1010100000000000000000000020
:103230000000000004FCFC0804FCFC0804FCFC008A
:10324000101F1F10001F1F10001F1F100000000084
:1032500000000000000000000004FCFC080804045A
:10326000FCF8000000101F1F100000101F1F1000AE
:1032700000000000000000000000000000E0F01866
:103280000C04040C18F0E00000030F0C10101010D8
:103290000C0F030000000000000000000000000010
:1032A0000004FCFC080404040CF8F0000080FFFF9C
:1032B000889010101C0F03000000000000000000A8
:1032C0000000000000E0F81C04040408F8FC000002
:1032D00000030F1810109088FFFF8000000000000E
:1032E0000000000000000000040404FCFC100804BE
:1032F000040C0C001010101F1F1010100000000014
:103300000000000000000000000000000000307815
:10331000CCC48484840C1C0000001E1810101011F2
:10332000190F06000000000000C0000000000000AF
:1033300000040404FFFF0404040000000000000077
:103340000F1F1010100C0000000000000000000013
:10335000000000000004FCFE00000004FCFE000071
:1033600000000F1F181010081F0F080000000000B9
:10337000000000000000000000040C3CFCC4000041
:10338000C43C0C0400000000010F1E0E01000000F0
:10339000000000000000000000000000043CFCC42D
:1033A00000E47CFC84807C040000071F0700000709
:1033B0001F070000000000000000000000000000E7
:1033C0000004041C7CE4C0341C0404000010101C25
:1033D0001601131F1C181000000000000000000060
:1033E0000000000000040C3CFCC400C43C040400C9
:1033F0000000C080C1370E01000000000000000086
:10340000000000000000000000001C0404C4F47C64
:103410001C0400000000101C1F17111010180E00D3
:1034200000000000000000F80C0400000000000094
:10343000001028EF00000000000000000000003F26
:1034400060400000000000000000FF0000000000DD
:10345000000000000000FF0000000000000000006D
:103460000000FF00000000000000040CF800000055
:103470000000000000000000EF2810000000000025
:10348000000040603F00000000000000001806023D
:103490000204081020203008000000000000000096
:1034A000000000000000000000000000000000001C
:1034B000807000FF1008FE424242FA424242FE0083
:1034C000806018070810FF50484641424C40FF00FA
:1034D000100C055555D5057F0555555505140C009F
:1034E0001010108AA96B352525ABE90810101000C3
:1034F0001060028C201808C838CF080828980000EF
:1035000004047E01040201FF4021060A112040004C
:103510000000FC242424FC252624FC24242404006C
:1035200040308F80844C55252525554C8080800067
:1035300000007E92929292929292929E80E000007F
:10354000088848281E0808080808FE080808080017
:10355000000202C2020202FE828282828202000015
:103560004040407F4040407F40404040404040001D
:10357000201808EAACA8A8AFA8A8ACEA0828180048
:1035800000003E02020202FF020212221E000000A0
:10359000000000C080808080808080FC84808080EB
:1035A000808080C0C0000000000000FF7F404040DD
:1035B000404040FF40404040404040FF7F0000000E
:1035C00000000000000000000000007F700000000C
:1035D00000000000000000000000000000000000EB
:1035E00000000000000000FCF800000000000000E7
:1035F000000000000000000000000000FFFE0202CA
:1036000002020202020202FFFF02020202020202A0
:103610000202FF0300000000000000001F1F04045E
:1036200004040404040404FFFF0404040404040464
:1036300004041F0000000000000000000000000063
:10364000000000000000007F3F00000000000000BC
:10365000000000000000000000000000000000006A
:10366000000000000000000000000000000000005A
:103670000000000000F8F8F0F070200000000000EA
:10368000000000000000000000000000000000003A
:10369000000000000000000000000000000000002A
:1036A000800000000000000000000000000000009A
:1036B0000000000000FFFFFFFF000000000000000E
:1036C00000000000000000000000000080800000FA
:1036D00000000000000000000000000000000000EA
:1036E00000FFFFFE06060606060606060606060696
:1036F0000606060606FFFFFFFF0606060606060686
:103700000606060606060606060606FFFFFFFF0774
:1037100002000000000000000000000000000000A7
:1037200000FFFFFF0000000000000000000000009C
:103730000000000000FFFFFFFF000000000000008D
:103740000000000000000000000000FFFFFFFF007D
:103750000000000000000000000000000000000069
:1037600000FFFFFF1818181818181818181818183C
:103770001818181818FFFFFFFF181818181818182D
:103780001818181818181818181818FFFFFFFF0035
:103790000000000000000000000000000000000029
:1037A0000201010000000000000000000000000015
:1037B0000000000000FFFFFFFF000000000000000D
:1037C00000000000000000000000000101000000F7
:1037D00000000000000000000000000000000000E9
:1037E00000000000000000000000000000000000D9
:1037F0000000000000FFFFFFFF00000000000000CD
:1038000000000000000000000000000000000000B8
:1038100000000000000000000000000000000000A8
:103820000000000000000000000000000000000098
:1038300000000000001F1F0F0F000000000000002C
:103840000000000000000000000000000000000078
:103850000000000000000000783800080000002090
:103860002C000000D0160008A43800082C0000200E
:1038700084060000E01600080000000000000000C0
:103880001E0000000000000000000000000000001A
:1038900001020304010203040607080902040608E2
:0438A0000000000024
:04000005080000ED02
:00000001FF
